:1000000019C020C01FC01EC01DC01CC01BC01AC00C
:1000100019C018C017C016C015C014C013C012C034
:1000200011C010C00FC00EC00DC00CC00BC00AC064
:1000300009C008C011241FBECFEFD4E0DEBFCDBF82
:1000400019D025C0DDCF5F988AB1806E8AB92E980D
:100050008AB1806C8AB908952F982E9A5D9A85E0AE
:1000600090E05E9A5E984D995D980197D1F75F9AFE
:100070005F98089503D0E7DFEFDFFFCF1BB88FEF66
:100080008AB915B884B918B88FE387B90895F89478
:02009000FFCFA0
:00000001FF
