:1000000019C020C01FC01EC01DC01CC01BC01AC00C
:1000100019C018C017C016C015C014C013C012C034
:1000200011C010C00FC00EC00DC00CC00BC00AC064
:1000300009C008C011241FBECFEFD4E0DEBFCDBF82
:100040001ED03EC0DDCF5F988AB1806E8AB92E98EF
:100050008AB1806C8AB908955D9A90E018161906E5
:100060005CF420E030E05E9A5E984D995D982F5FD9
:100070003F4F28173907B9F75F9A5F98089517D04F
:10008000E2DF2F982E9AC1E08C2FE6DFCF5F2FE9B9
:1000900086E891E0215080409040E1F700C00000E8
:1000A0002E985F9A2E9A5F98C13171F7ECCF1BB8EA
:1000B0008FEF8AB915B884B918B88FE387B9089556
:0400C000F894FFCFE2
:00000001FF
